:020000040800F2
:1000000030380020A5010008532500086F230008A0
:10001000512500087F1100086F2B00080000000028
:1000200000000000000000000000000001270008A0
:10003000ED11000800000000552500080327000806
:10004000BF010008BF010008BF010008BF01000890
:10005000BF010008BF010008BF010008BF01000880
:10006000BF010008BF010008BF010008BF01000870
:10007000BF010008BF010008BF010008BF01000860
:10008000BF010008BF010008BF010008BF01000850
:10009000BF010008BF010008BF010008BF01000840
:1000A000BF010008BF010008BF010008BF01000830
:1000B000A52700080000000000000000BF010008A4
:1000C000BF0100080000000000000000BF010008A0
:1000D00000000000BF010008BF0100080000000090
:1000E000BF010008BF010008000000000000000080
:1000F0000000000000000000000000000000000000
:10010000000000000000000000000000BF01000827
:100110000000000000000000BF010008BF0100084F
:10012000BF010008BF010008BF010008BF010008AF
:10013000BF010008000000000000000000000000F7
:10014000BF010008BF010008BF010008BF0100088F
:10015000BF010008BF010008BF010008BF0100087F
:10016000BF010008BF010008BF0100080000000037
:10017000BF010008BF0100080000000000000000EF
:10018000BF010008BF010008BF010008DFF810D060
:1001900000F0A2FD0048004799530008AFF300802B
:1001A000303800200648804706480047FEE7FEE753
:1001B000FEE7FEE7FEE7FEE7FEE7FEE7FEE7FEE717
:1001C000952700088D0100082DE9F05F0546002005
:1001D00092469B4688460646814640241BE02846B8
:1001E00041464746224600F012FC53465A46C01A82
:1001F000914110D311461846224600F0F9FB2D1A02
:1002000067EB01084F4622460120002100F0F0FB79
:1002100017EB00094E41201EA4F10104DFDC484623
:1002200031462A46434600F000B830BCBDE8C09FC6
:1002300040EA01039B0703D009E008C9121F08C068
:10024000042AFAD203E011F8013B00F8013B521EE8
:10025000F9D27047D2B201E000F8012B491EFBD25F
:1002600070470022F6E710B513460A4604461946C1
:10027000FFF7F0FF204610BD30B5044600200346CE
:1002800000E05B1C934203D2E05CCD5C401BF8D0E5
:1002900030BD00000FB400B589B00BA800906A46CD
:1002A00003480A9900F0E4FB09B05DF814FB000074
:1002B000D80A00202DE9FF5F1D464FF0FF3BD5E92E
:1002C000014691465F464FF00008A9697F1C0198DE
:1002D0008847296A824688470028F6D1BAF1FF3F4D
:1002E0000CD024F4C064002E19DD600614D5BAF1D8
:1002F0002B0F09D0BAF12D0F0ED103E0584604B0F0
:1003000000F07EB844F48064A9697F1C0198884796
:10031000761E8246002E02DDBAF1300F03D0B9F10D
:10032000000F26D032E0A969761E44F400747F1CC9
:10033000019888478246002E05DDBAF1780F06D075
:10034000BAF1580F03D0B9F1000F10D01EE0B9F187
:10035000000F02D0B9F1100F18D1A969761E24F44C
:1003600000747F1C019888478246102002E0082014
:1003700000E00A20814609E008FB0908A969761E09
:1003800044F400747F1C019888478246002E05DDE6
:100390004946504600F05DFB0028EDDAE969019816
:1003A0008847A00502D46FF00100A8E7E00725D137
:1003B000600613D5600502D5C8F1000000E0404694
:1003C00029680A1D2A600968220501D5087015E010
:1003D000220701D5088011E008600FE02868011DA0
:1003E00029600068210502D580F8008006E0210719
:1003F00002D5A0F8008001E0C0F8008038467EE712
:1004000030BCBDE8C09F00002DE9FF4F087883B0E5
:100410009946FF2805D0491C2D2804D0002400202F
:1004200008E000200BE00124F9E700EB800003EB7B
:100430004000491C0B78FF2BF7D104B14042002348
:100440000293147819461D462D2C01D02B2C04D173
:10045000521C2D2C13D000240294AA461478FF2C91
:100460000FD00A25A3FB057801FB05814FF0000C96
:1004700003FB0C11521CE3194AEB0101EEE70124C6
:10048000EAE7814453EA010002D019F5C87F06DA91
:1004900003980021C0E9001107B000F065B90025FC
:1004A000AE4E2F46DFF8B882184600F0BDFBCDE90E
:1004B0000001B9F1000002DAC9F1000400E00446CD
:1004C0000023A74A1AEB030B42EB045A12E0E007A1
:1004D00007D02A4633463846414600F030FB0746EF
:1004E00088462A4633461046194600F028FB054642
:1004F0000E466410002CEAD1DDE90001B9F1000FCD
:100500005A46534606DA00F0E1F93A46434600F00F
:10051000DDF905E000F013FB3A46434600F00FFB1F
:10052000029A0AB181F00041039AC2E90001B3E7DF
:100530002DE9FF4F1F468DB0D7E901464FF0FF3838
:100540002E2045464FF000090B90B9696D1C0E989E
:100550008847396A824688470028F6D1BAF1FF3FBA
:100560000AD024F4D064002E11DDBAF12B0F08D08C
:10057000BAF12D0F0BD102E0404611B08DE744F4E3
:100580008064B9696D1C0E9888478246761E69465C
:10059000600501D52D2000E02B208DF8000001F131
:1005A000010B0DF1200809E0B9696D1C0E98884710
:1005B00082460F9844F40074761E0560002E02DD1A
:1005C000BAF1300FF0D00B998A453ED144F0800447
:1005D00006E00F99681CA9F1010944F40074086051
:1005E000B9696D1C761E0E98884782463028F0D077
:1005F0002BE00B998A4505D1200603D444F08004F2
:10060000761E18E0504602F074FC08B30DF1130199
:10061000761E44F400748B4508D2AAF130000BF822
:10062000010B200607D5A9F1010003E0200602D442
:1006300009F101008146A00502D50F99681C0860E8
:10064000B9696D1C0E9888478246002ED1DC53E0B4
:10065000002E51DDBAF1650F02D0BAF1450F4BD132
:10066000A00549D5B9696D1C24F44074761E0E9816
:1006700088478246002E0CDD2B2804D0BAF12D0FBE
:1006800007D144F48074B9696D1C0E98884782467E
:10069000761EE00501D52D2100E02B2108F8011B75
:1006A000CDF82C8021E00DF12901761E44F4007470
:1006B00088450CD2AAF1300010F0FF0088F8000045
:1006C00002D10B99884509D908F1010806E0E00537
:1006D00001D5244801E042F20F708146B9696D1CD2
:1006E0000E98884782460F980560002E04DD50461C
:1006F00002F0FFFB0028D6D1F9690E988847FF2049
:100700008BF8000088F800000020069007904B4608
:100710006A4608A906A8FFF777FEA00502D46FF085
:1007200001002AE714F0240F0AD0E00714D1DDE914
:1007300006123868031D3B600068C0E900120BE038
:10074000DDE9060100F0ACFA0146E00704D13868A3
:10075000021D3A600068016028460EE70000144060
:100760000000F03FF1D8FFFF30BCBDE8C08F2DE99D
:10077000FE4F804681EA0300C00F0C46009021F036
:10078000004123F00045B8EB0200A94105D24046E4
:10079000214690461C460B46024623F0004010437B
:1007A00047D0270DC7F30A00C3F30A510290401A3D
:1007B000019040286BDAC3F3130040F4801B0098CB
:1007C000924620B10023D2EB030A63EB0B0B019896
:1007D0005946C0F14002504600F00AF906460D465F
:1007E00050465946019A00F022F910EB0800614189
:1007F000002487EA115284EAE7731A4340D0009A32
:1008000062B3019A012A4FEA075215DC001B61EB23
:1008100002014FF0004202EA0752CDE90042001CFB
:1008200041F5801132462B4600F03BF903B000F051
:1008300045B840462146F9E7001B61EB0201001C68
:1008400041F5801300185B412018A2F5001747EB13
:10085000030140EAD570B6196D4111E06D084FEA09
:10086000360645EAC0754FEA0752001B61EB0201EC
:10087000001C41F5801149084FEA30000019514130
:1008800032462B4603B000F01CB800F0FBB80098CD
:10089000012240000023D0EB020263EBE0730098DA
:1008A00021464FEAE074B8EB000061EB0401E9E790
:1008B00083F000435BE781F0004158E730BCBDE8BE
:1008C000C08F30BCBDE8C04FFFF7DFBF2DE9F04D52
:1008D00081EA030404F0004B21F0004514464FF078
:1008E000000A23F0004150EA050220D054EA010238
:1008F0001DD0C5F30A570246C5F31303C1F3130015
:10090000C1F30A5640F4801543F48013A7EB0608A0
:10091000101BD64608F2FD3873EB050002D308F130
:10092000010801E092185B41B8F1000F03DA0020E2
:100930000146BDE8F08D00204FF480110646844644
:100940000EE0171B73EB050705D3121B63EB0503C2
:1009500006434CEA010C49084FEA300092185B410B
:1009600050EA0107EDD152EA030012D082EA0400F6
:1009700083EA0501084305D0101BAB4106D20122D2
:10098000002306E000224FF0004302E06FF0010276
:1009900053101AEB06004CEB085110EB0A0041EB28
:1009A0000B01BDE8F04D00F06DB80EB540F23341DB
:1009B00002910021CDE900110A460B4600F071F8C2
:1009C00003B000BD30B50B460146002020220124B3
:1009D00009E021FA02F59D4205D303FA02F5491B0D
:1009E00004FA02F52844151EA2F10102F1DC30BD23
:1009F000202A04DB203A00FA02F1002070479140DF
:100A0000C2F1200320FA03F3194390407047202AD3
:100A100004DB203A21FA02F00021704721FA02F3A8
:100A2000D040C2F120029140084319467047202A65
:100A300006DBCB17203A41FA02F043EAE07306E006
:100A400041FA02F3D040C2F1200291400843194616
:100A500070473A2800D2303820F02002412A01D3D2
:100A6000A2F13700884201D34FF0FF3070470000F9
:100A7000024B9361024BD36100F05CB9E54B000877
:100A8000190D000810B5141E73F1000408DA401C9B
:100A900041F1000192185B411A4301D120F001009D
:100AA00010BD2DE9F04D92469B4611B1B1FA81F28D
:100AB00002E0B0FA80F220329046FFF799FF044638
:100AC0000F4640EA0A0041EA0B0153465A460843E2
:100AD00013D0114653EA010019D0C8F14002504624
:100AE000FFF795FF05460E46504659464246FFF72A
:100AF0007FFF084305D0012004E020463946BDE8C9
:100B0000F08D0020054346EAE0762C4337430A98EF
:100B10006305E40AA0EB08000022FD0A44EA4754FA
:100B20000A3002D500200146E9E7010510196941A4
:100B3000DDE9084500196941BDE8F04DA2E72DE95E
:100B4000FE4F81EA030404F0004421F000410094C8
:100B50004FF0000B23F0004350EA01045ED052EA4C
:100B600003045BD0C3F30A54C1F30A552C44A4F226
:100B7000F3340194A0FB0254C1F3130141F480113A
:100B8000C3F3130343F4801301FB024400FB034E41
:100B9000840A970A44EA815447EA8357A4FB07680A
:100BA00002958D0A05FB07854FEA932C04FB0C5434
:100BB0002705029D4FEA065847EA1637B5EB0805A8
:100BC0006EEB070C870E920E47EA811742EA8312FA
:100BD000A7FB0201B6EB0B0164EB00042B0D43EA0B
:100BE0000C335E1844EB1C50DA465146E7FB020119
:100BF000C5F313044FEA0B3343EA14534FEA0432AC
:100C0000019C43EA0603A4F10C040294009CCDE984
:100C100000B4FFF746FF03B000F003B80020014620
:100C2000F9E730BCBDE8C08F0EB540F23342029206
:100C30000022CDE900221346FFF733FF03B000BDC9
:100C4000C1F30A52C1F3130140F2FF3341F48011A2
:100C50009A4202DA00200146704740F233439A423A
:100C6000A2F2334202DC5242FFF7D1BEFFF7C0BE10
:100C700030B5041E71F1000404DB4FF00044404223
:100C800064EB0101141E73F1000405DB1C464FF0F8
:100C90000043524263EB0403994208BF904230BDC7
:100CA00001F0004330B421F0004150EA010206D0C7
:100CB0000A0DA2F56072C1F31301002A02DC30BCF8
:100CC00000207047440F44EAC104C100E01830BC62
:100CD00000EBC25000F03CB8064C074D06E0E0685F
:100CE00040F0010394E8070098471034AC42F6D373
:100CF000FFF750FA9C5F0008BC5F0008094910B577
:100D000008784C1C18B1401E0870205C10BD0021F2
:100D10000720ABBE207010BD02490878421C0A7043
:100D200070470000E80A002002681144137801604F
:100D300018467047D160044951610449116200218D
:100D40001161114600F040B8290D0008BF0D0008E0
:100D50000029A8BF7047401C490008BF20F00100CF
:100D6000704710B4B0FA80FC00FA0CF050EA0104AD
:100D700004BF10BC704749B1CCF1200421FA04F43F
:100D800011FA0CF118BF012121430843A3EB0C0118
:100D9000CB1D4FEA00614FEA102042BF002010BC7B
:100DA000704700EBC35010440029A4BF10BC70472B
:100DB000401C490008BF20F0010010BC7047C0B2C1
:100DC0004FF4F05100F09CB92DE9F34F8BB04FF088
:100DD000000801F10C000C464FF0010B46460DF1E6
:100DE000080A01906269012101989047051E2DD0E3
:100DF000252D2CD0216A8847C0B162690121019854
:100E00009047216A88470028F7D1411E62690198FE
:100E1000904700E0761CA1690B988847216A8847B3
:100E20000028F7D1E1690B988847DBE7A1690B98A7
:100E300088470746A84201D1761CD3E7E1690B98A1
:100E400088477F1C02D1B8F1000F6FD047E100271F
:100E500062693D463946019890472A2804D1626963
:100E60000121019890470125DFF8889262690121EC
:100E700001989047A0F130010A290AD24F45E5DCDC
:100E800007EB870100EB4107303FDFD445F0100549
:100E9000ECE7E90601D46FF000476C280AD04C2833
:100EA00014D0682815D06A280DD074281CD07A2850
:100EB0001AD01DE062690121019890476C2802D088
:100EC00045F0040514E045F002050DE045F020056D
:100ED0000AE06269012101989047682802D045F034
:100EE000080505E045F40065626901210198904715
:100EF000C4E9015765283DD019DC58287AD00CDCAC
:100F0000452837D004DC252826D0412831D131E0CE
:100F100046282FD047282CD12CE05B2877D0612899
:100F200028D063287CD0642823D15AE0D1E06F28F0
:100F300048D008DC66281DD067281BD0692821D03E
:100F40006E2816D127E0702845D0732868D0752800
:100F500047D078280DD14DE0A1690B988847054608
:100F600025283FF469AFE1690B9888476D1C3FF471
:100F70006AAFB4E023466A466FF001000B99FFF7B1
:100F8000D7FA9FE045F040006060A80723464FF085
:100F9000000236D43EE0E8077FF447AF2068011D29
:100FA00021600068290501D506701BE7290701D5D6
:100FB000068017E7A90703D5F117C0E9006111E71B
:100FC00006600FE745F040006060A80723464FF039
:100FD000080216D41EE040F60E0125EA010060600A
:100FE00016E045F040006060A80723464FF00A0273
:100FF00007D40FE045F040006060A80708D52346FD
:1010000010226FF001000B99AFF300805AE007E067
:10101000234610226FF001000B99FFF74BF951E0C6
:101020004FF000094F464B46632802D05B2807D09B
:1010300041E02079C00601D40120A06001273AE0F8
:1010400062690121019890475E2805D14FF001099E
:101050006269494601989047216939B900210A46D9
:10106000534643F82120491C0829FADBB0B3216913
:1010700069B9C11700EBD16253110AEB830122F069
:101080001F02821A01200B68904003430B606269C3
:101090000121019890475D28E8D1B9F1000F09D0EE
:1010A0000020514651F82020D24341F82020401C16
:1010B0000828F7DB02AB224600976FF001000B997E
:1010C000AFF3008000280CDA401C08D1BBF1000F00
:1010D00005D04FF0FF300DB000F00EB8FFE74046EE
:1010E000F9E7E90701D108F1010806444FF0000BC8
:1010F00078E60000CCCCCC0C30BCBDE8C08F000042
:101100007F2801D9002208E0064A02EB5002C007FE
:10111000127800D1120902F00F020120904008401D
:10112000704700005C5F000870B58C1810F8015B18
:1011300015F0070301D110F8013B2A1106D110F870
:10114000012B03E010F8016B01F8016B5B1EF9D174
:101150002B0705D40023521E0DD401F8013BFAE7FA
:1011600010F8013BCB1A921C03E013F8015B01F865
:10117000015B521EF9D5A142D8D3002070BDFEE715
:10118000144810B5016821F00101016001F07EFDF5
:1011900011490968114BC1F30221114A01240429A4
:1011A0000BD010490C600C68002CFCD10D4908399B
:1011B0000B60096891420AD0FEE70B498C608C688D
:1011C000002CFCD10B600968914200D0FEE701F0D1
:1011D000CAFD10BD002000E0002004E0C2A507F415
:1011E000CDB5E8B5084C025800300240704772B6E1
:1011F000FEE7F0B5044600201E23012601E05B1E39
:1012000005D303F01F0706FA07F50D42F7D072B1B8
:10121000082A0AD0102A05D0182A01D1072B06D394
:101220000120F0BD082BFBD201E0102BF8D223687F
:10123000596121688B6823F0180313438B60F0BD5C
:1012400010B5040010D0607F20B900202077204620
:1012500000F030F802206077207938B1D4E902122A
:101260002046FFF7C6FF48B1012010BD2168104895
:1012700048612068816821F0180181606079A0B11F
:1012800020692168086120688168626921F0600135
:101290001143816020688168A26921F080011143B7
:1012A000816001206077002010BD4FF0FF30E8E73B
:1012B000B71DC10408B500680649884208D1064830
:1012C000816C41F480518164806C00F48050009006
:1012D00008BD0000003002400010024070B5044616
:1012E00000F014F90546601C02D00448007804445C
:1012F00000F00CF9401BA042FAD370BDC80A0020D0
:101300002DE9F04FDFF8E091002301270326A9F132
:10131000040B85B00F2509F1040AABF1040EDBE0E4
:1013200007FA03FC12EA0C027ED00C7904F00304E5
:10133000012C01D0022C20D1846800945C0006FAB4
:1013400004F80494009C24EA08040094D1F80C806A
:10135000049C08FA04F8009C48EA0408C0F80880D5
:10136000446824EA0C0491F804C0CCF3001C0CFA85
:1013700003FC4CEA040CC0F804C00C79E443A40755
:101380000DD0D0F80CC04FEA430806FA08F42CEA56
:10139000040C8C6804FA08F444EA0C04C4600C7968
:1013A00004F00304022C19D1DC0800EB840402943D
:1013B000246A4FEA437C4FEADC6CCDF810C005FA92
:1013C0000CFC24EA0C04D1F81080DDF810C008FAF7
:1013D0000CF848EA0408029CC4F8208004684FEA2C
:1013E000430806FA08FC24EA0C0491F804C00CF047
:1013F000030C0CFA08FC4CEA040CC0F800C04C6862
:1014000014F4403F67D0394CD4F860C04CF0010C64
:10141000C4F860C0246E23F0030C04F001040094AF
:10142000334C6444029400E055E0A4684FEA837CA6
:101430004FEA1C7805FA08FC24EA0C04B0F1904F3E
:1014400006D0DFF8B0C0604505D14FF0010C0BE0CD
:101450004FF0000C08E0DFF8A0C0604502D14FF06B
:10146000020C01E04FF0070C0CFA08FC4CEA040CEB
:10147000029CC4F808C0D9F80040CC46D1F80480DA
:1014800094435FEAC82800D51443CCF80040DAF84A
:101490000040D446D1F8048094435FEA882800D500
:1014A0001443CCF80040DBF80040DC46D1F804805F
:1014B00094435FEA883800D51443CCF80040DEF846
:1014C0000040F446D1F8048094435FEAC83800D560
:1014D0001443CCF800405B1C0C682246DC407FF4CF
:1014E0001FAF05B000F00AB8080401400010024028
:1014F00000000140000400480008004830BCBDE87E
:10150000C08F0AB18161704781627047014880686D
:1015100070470000C80A0020024881680278114420
:1015200081607047C80A002010B50024032000F035
:1015300063F8002000F008F808B1012401E000F091
:1015400025F8204610BD000070B50E4E054600245B
:10155000307898B14FF47A71B1FBF0F00A4909681C
:10156000B1FBF0F000F0A4FD40B9102D06D200222E
:101570002946501E00F020F8756000E00124204646
:1015800070BD0000C80A0020D40A0020094808B530
:10159000016E41F001010166016E01F0010100914F
:1015A000816D41F080518165806D00F08050009028
:1015B00008BD000000100240F0B40E4B1B680C4642
:1015C000C3F30223C3F10705042D00D90425191D17
:1015D000072901D2002300E0DB1E012606FA05F1EF
:1015E000491E214099409E40761E16403143F0BC72
:1015F00001F0CEBA0CED00E0064900F007020868E1
:101600004FF6FF03184040EA0220034A10430860E7
:10161000704700000CED00E00000FA051649B0F537
:10162000007F0868C0F3412009D0022805D008686F
:1016300020F4C06040F480600860002070470128FA
:10164000FBD0086820F4C06040F4007008600B48CC
:101650003222006850430A4AB0FBF2F0401C00E01E
:10166000401E4A69520501D50028F9D14869400554
:10167000E3D503207047000000700040D40A00202A
:1016800040420F000248006800F4C060704700004C
:10169000007000402DE9F84F0446002700889C4D5B
:1016A0003E46000515D5E06B60B1B0F5000F04D0E3
:1016B000B0F5400F2BD001270AE0E86840F48030F5
:1016C000E86024E00021201D00F046FF07001ED046
:1016D0003E462068800338D5A86D4FF00008C00052
:1016E00009D4A86D40F08050A865A86D4FF001089E
:1016F00000F080500090DFF81CA2DAF8001041F4EE
:101700008071CAF80010FFF701FF814610E0D5F89C
:101710008800E16B20F440000843C5F88800D8E752
:10172000FFF7F4FEA0EB0900022801D9032704E02B
:10173000DAF80000C005F3D5EFB33E46B8F1000F6C
:1017400003D0A86D20F08050A8652078C00707D08E
:10175000D5F88800216A20F003000843C5F8880006
:101760002078800707D5D5F88800616A20F00C0042
:101770000843C5F888002078800607D5D5F888008A
:10178000A16A20F440600843C5F8880020888005DD
:1017900007D5D5F88800616B20F440200843C5F8D0
:1017A00088002088400509D5D5F88800A16B20F471
:1017B0004010084300E02EE0C5F88800207840067D
:1017C00007D5D5F88800E16A20F440500843C5F8F1
:1017D00088002088C00507D5D5F88800216B20F443
:1017E00040300843C5F8880020884FF00067800427
:1017F0004FF080684ED5D5F88800216C20F040600D
:101800000843C5F88800206CB8423BD1E86840F432
:101810008010E8603EE0D5F8900010F4407014D0DD
:10182000216D814211D0D5F89000D5F8901020F4A8
:10183000407041F48031C5F89010D5F8901021F433
:101840008031C5F89010C5F89000C00711D0FFF79F
:101850005DFE074641F2883907E000BFFFF756FEFC
:10186000C11B494501D9032668E7D5F890008007D8
:10187000F4D5D5F89000216D20F440700843C5F8E8
:1018800090005BE7404505D10121201D00F064FE7A
:1018900000B106462068400317D5D5F88800616C72
:1018A00020F040600843C5F88800606CB84204D15D
:1018B000E86840F48010E86007E0404505D1012168
:1018C000201D00F049FE00B106462088400411D5D5
:1018D000D5F88800A16C20F040500843C5F8880076
:1018E000A06CB0F1805F05D10221201D00F034FE14
:1018F00000B106462088000406D555F8880FE16C33
:1019000020F0804008432860304600F005B8000011
:10191000001002400070004018BCBDE8E08F0000DD
:101920002DE9F0470F4605006BD0494E306800F0B6
:101930000700B84209D2306820F007003843306011
:10194000306800F00700B8425BD12878414C80072E
:101950000AD5A868A16801F0F001884204D9A168FD
:1019600021F0F0010143A1602878C0072CD06868FD
:10197000032811D0022812D0216898B14905002906
:101980003FDAA16821F003010143A160FFF7BEFD2A
:10199000804641F2883910E021688901EFE721682B
:1019A0008903ECE78907EAE7FFF7B0FDA0EB080140
:1019B000494502D90320BDE8F087A068696800F0B6
:1019C0000C00B0EB810FEFD1287880070AD5A8680A
:1019D000A16801F0F001884204D2A16821F0F00171
:1019E0000143A160306800F00700B8420BD93068AD
:1019F00020F0070038433060306800F00700B8423C
:101A000001D00120D7E72878400705D5A068E9680C
:101A100020F4E0600843A0602878000706D5A0689D
:101A2000296920F4605040EAC100A06000F03EF84F
:101A3000A168094AC1F30311515C01F01F01C840BC
:101A40000649086006480068BDE8F047FFF77CBD1E
:101A50000020024000100240A85E0008D40A0020C6
:101A6000CC0A00200548064900688968054AC1F388
:101A70000221515C01F01F01C8407047D40A0020C8
:101A800000100240E85E00080548064900688968C1
:101A9000054AC1F3C221515C01F01F01C8407047E3
:101AA000D40A002000100240E85E000870B5254905
:101AB000002318468A68CC6812F00C0204F0030672
:101AC000214C4FEA640509D00C2A05D0042A32D0F3
:101AD000082A00D1284670BD012E10D10B681B07C3
:101AE00004D4D1F89430C3F3032302E00B68C3F3AA
:101AF0000313164E56F82330DAB10C2AEBD1C8681E
:101B000000F00300022818D0032818D01846CA682D
:101B1000CB68C2F30212C3F306234343521CB3FB48
:101B2000F2F2C868C0F34160401C4000B2FBF0F024
:101B300070BD184670BD204670BD2046E7E72846B8
:101B4000E5E70000001002400024F400B85E000841
:101B50002DE9F84304006FD0FA4DA86800F00C0698
:101B6000E86800F003072078C00664D576B10C2E33
:101B700001D1012F0AD0A069002828687AD040F04E
:101B800001002860FFF7C2FC80465DE028688007FE
:101B900002D5A0690028DED0216A2868000703D595
:101BA000286800F0F00004E0D5F89400F02202EA82
:101BB0001010814216D9084600F064FD00283BD180
:101BC000286840F0080028602868216A20F0F000AA
:101BD000084328606868E16920F47F4040EA0120FA
:101BE000686016E0286840F0080028602868216ACC
:101BF00020F0F000084328606868E16920F47F4025
:101C000040EA0120686026B9206A00F03BFD002808
:101C1000D5D1FFF74BFFA968CB4AC1F30311515C43
:101C200001F01F01C840C9490860C9480068FFF7B2
:101C30008BFC00287ED12EE0CAE000BFFFF766FCD7
:101C4000A0EB0800022876D828688007F6D5286817
:101C500040F0080028602868216A20F0F00008435E
:101C600028606868E16920F47F4040EA01206860EC
:101C700011E0FFE720F001002860FFF747FC8046F5
:101C800006E000BFFFF742FCA0EB08000228DAD80C
:101C900028688007F6D42078C00740D0082E18D0D6
:101CA0000C2E01D1032F14D06068B0F5803F17D0FF
:101CB000B0F5A02F286817D020F48030286028685D
:101CC00020F4802028606068E0B1FFF71FFC8046A8
:101CD00014E02868800322D56068002878D01EE0D0
:101CE000286840F48030EDE740F480202860F7E772
:101CF000FFF70CFCA0EB08006428A4D82868800338
:101D0000F6D50CE0FFF702FC804605E0FFF7FEFB8E
:101D1000A0EB0800642896D828688003F6D42078C1
:101D200080073BD5042E11D00C2E01D1022F0DD0EF
:101D3000E06801E0AAE1FFE0002828681ED040F436
:101D400080702860FFF7E2FB07460CE0286840053A
:101D50000CD5E0680028C1D008E000BFFFF7D6FB33
:101D6000C01B022893D828684005F7D56868217CF5
:101D700020F0F85040EA016068600FE020F48070C5
:101D80002860FFF7C3FB074605E000BFFFF7BEFB77
:101D9000C01B0228B1D828684005F7D42078000776
:101DA00029D560690028D5F8940012D040F00100D0
:101DB000C5F89400FFF7AAFB074604E0FFF7A6FB6F
:101DC000C01B022899D8D5F894008007F6D512E0F8
:101DD0002BE120F00100C5F89400FFF797FB0746C0
:101DE00005E000BFFFF792FBC01B022885D8D5F89D
:101DF00094008007F6D42078400766D5A86D0027A8
:101E0000C00008D4A86D40F08050A865A86D0127D7
:101E100000F0805000904F480168C90512D4016855
:101E2000814641F480710160FFF770FB804605E058
:101E3000FFF76CFBA0EB080002287DD8D9F8000062
:101E4000C005F5D5A068012816D00528D5F8900062
:101E500017D020F00100C5F89000D5F8900020F0D0
:101E6000040000BFC5F89000A06841F28839C0B1F5
:101E7000FFF74CFB80460FE0D5F8900040F00100E2
:101E8000F0E740F00400C5F89000F5E7FFF73EFBEF
:101E9000A0EB080149454FD8D5F890008007F5D54B
:101EA0000EE0FFF733FB804606E000BFFFF72EFB96
:101EB000A0EB080149453FD8D5F890008007F5D43C
:101EC0001FB1A86D20F08050A8652078800628D525
:101ED000606A0028D5F8980012D040F00100C5F8DB
:101EE0009800FFF713FB074605E000BFFFF70EFB66
:101EF000C01B022820D8D5F898008007F6D510E03E
:101F000020F00100C5F89800FFF700FB074604E049
:101F1000FFF7FCFAC01B02280ED8D5F898008007FE
:101F2000F6D4A06AF0B3022816D00C2E7DD0286813
:101F300020F08070286000E0A7E0FFF7E7FA044691
:101F4000A6E0000000100240A85E0008D40A0020AD
:101F5000CC0A002000700040E868E26A00F003014B
:101F6000914228D1216B00F0700209011039914291
:101F700021D1626B00F4FE41B1EB022F1BD194F82A
:101F8000382000F07841B1EBC26F14D1A18F00F47A
:101F9000C00249084905A1F5001191420BD194F8FE
:101FA000401000E06AE04908490600F0C060A1F175
:101FB000007181424BD00C2E73D02868400170D440
:101FC000286820F080702860FFF7A0FA064604E039
:101FD000FFF79CFA801B022857D828688001F7D4A5
:101FE000F4E90B016FF00F0202EB01110843218AA3
:101FF0005204490802EB4151A26841EA0221084318
:10200000217D4FF07E42490802EB41610843217B6C
:1020100040EAC160E968244A11400843E860286842
:1020200040F080702860E86800E03AE040F080709E
:10203000E860FFF76BFA044605E000BFFFF766FAB9
:10204000001B022821D828688001F7D527E02868DE
:10205000800124D4286840F080702860E86840F04F
:102060008070E860FFF752FA044604E0FFF74EFA8A
:10207000001B022809D828688001F7D50FE000BFAF
:10208000FFF744FA001B022802D90320BDE8F883B9
:1020900028688001F4D4E86804490840E86000201A
:1020A000F4E70120F2E700008C809D01FCFFEEFECA
:1020B00010B5401EB0F1807F01D3012010BD4FF05C
:1020C000E02460610F21601700F062FD0020A06134
:1020D00007202061002010BD10B5040002D0A06FC1
:1020E00010B107E0012010BD002084F874002046E4
:1020F00000F026F82420A0672068016821F0010183
:102100000160204600F0E2FB0128ECD0606A10B1CB
:10211000204600F048FB2068416821F4904141606E
:102120002068816821F02A0181602068016841F0FF
:10213000010101602046BDE8104000F098BB00009E
:10214000F0B587B0044614216846FEF78AF81849AE
:102150002068884229D11748816D41F4003181659A
:10216000816D01F400310591C16C41F00101C16440
:10217000C06C022500F001000590042000268DE8C7
:10218000610003240720CDE903404FF090476946E2
:102190003846FFF7B5F8A803CDE90005CDE902649C
:1021A000694604943846FFF7ABF807B0F0BD00006D
:1021B00000440040001002402DE9F84F0446C06F73
:1021C0009A4616460D46202870D10DB306B394F8F2
:1021D000740001286AD0012084F874004FF00008D0
:1021E000C4F880802221E167C4F860805834FFF78A
:1021F0008DF924F8026B814624F852694FF480531C
:1022000054F80809FF21984208D122691AB11CE04C
:10221000012000F04DB840F2FF1116E07F2290B18E
:10222000B0F1805F14D0A4F85C8000BFB4F85C709B
:10223000984201D1206990B12E46002584F874801F
:1022400007F0FF0825E0266936B9A4F85C10EDE731
:10225000216909B13F21F8E7A4F85C20E6E70026F0
:10226000ECE74B46002220212046CDF800A000F0EC
:102270001BFC08B10320CCE72068808C8EB100EAFB
:10228000080006F8010B00BFB4F85A00401EA4F87D
:102290005A00B4F85A000028E3D12020E06700205B
:1022A000B7E7384025F8020BEEE7FFE70220B0E77A
:1022B00018BCBDE8E08F00002DE9F8430446806FAC
:1022C0001F4616460D4620284FD1CDB1C6B194F811
:1022D0007400012849D0012084F874004FF00008F0
:1022E000C4F880802120A067FFF710F9A4F850609F
:1022F0008146A4F85260A068B0F5805F03D004E086
:102300000120BDE8F883206928B12E465FF0000562
:1023100084F8748010E00026FAE78021204600F05F
:10232000C3FBB8B9C6B116F8010B21680885B4F82B
:102330005200401EA4F85200B4F852004B464FF031
:10234000000200970028E8D14FF04001204600F03D
:10235000ABFB30B10320D4E735F8020BC0F3080023
:10236000E3E72020A0670020CBE70220C9E7FEE7D3
:1023700070B50268154B4FF08046984201D0B042CC
:1023800003D14C6822F070022243114C114D984247
:1023900005D0B04203D0A04201D0A84203D1CE68FC
:1023A00022F44072324302608A68C2620A88826202
:1023B000984203D0A04201D0A84201D1096901632B
:1023C000416941F001014161002070BD002C0140D4
:1023D00000400140004401400A4810B5084901602E
:1023E0000021017141714161816101210162FEF7AA
:1023F00027FF002803D0BDE81040FEF7F8BE10BD4F
:10240000003002400C1F002010B586B01421684631
:10241000FDF727FF1548C16C41F00401C164C16C90
:1024200001F004010591C16C41F00101C164C16C6E
:1024300001F001010591C16C41F00201C164C06C61
:102440000B4C00F002000590002208212046FFF707
:1024500058F80820009001200021CDE901010391E6
:1024600069462046FEF74CFF06B010BD0010024042
:102470000004004810B586B014216846FDF7F1FE4F
:102480001F48816D41F001018165806D00F0010000
:1024900005901C480068C0F30220011D072901D2E5
:1024A000002000E0C01E002202FA00F108011649D7
:1024B00081F800044FF0E0214FF08050C1F8000196
:1024C0000920ADF8000041F28830CDE90120C406B2
:1024D000694620460392FFF74BFF206840F08000DA
:1024E0002060A06809490840A060606820F0700082
:1024F0006060A06820F08000A06006B010BD000001
:10250000001002400CED00E01CE000E0F8BFFEFF10
:102510000D4810B50B4901604FF4E13141600021D5
:1025200081600C22C160C0E904128161C161016255
:102530004162FFF7D1FD002803D0BDE81040FEF74F
:1025400056BE10BD00440040AC27002001F076BA12
:10255000FEE7FEE7704700002DE9F041444C0546D8
:102560008846E0680026810728680DD0E16801F000
:102570000301814216D1A8B1E0686968C0F3021076
:10258000401C88420ED120E0012804D0022805D04A
:10259000032807D108E02168890701E0216849057F
:1025A000002907DB01265FE02168890302D4216846
:1025B0004903F5E7E1686A686FF00F0321F07301E2
:1025C00003EB021211430143E160206820F08060B8
:1025D0002060FEF79BFF074605E000BFFEF796FF71
:1025E000C01B022837D820680001F7D4B8F1000FCB
:1025F00018D0B8F1010F1DD0287D4FF07E41400862
:1026000001EB4060A96840EA01202169194A1140A4
:1026100008432061206840F080602060FEF776FF6C
:1026200007461AE0A868297B000240EAC1602169D8
:10263000114AECE7288A1149400801EB4050A9688B
:1026400040EA012021690E4AE1E700BFFEF75EFF84
:10265000C01B022801D9032606E020680001F5D539
:102660002069A969084320613046BDE8F081000077
:1026700000100240FF80FFF9FF80FF070000E0FF2D
:10268000FF809FFFF8B51C4D06460024A86DC000D2
:1026900002D5FEF7F7FF0DE0A86D40F08050A86569
:1026A000A86D00F080500090FEF7ECFFA96D21F0BE
:1026B0008051A965B0F5007F04D0802E07D94FF076
:1026C00003040AE0802E08D9A02E01D804E001D12D
:1026D000022402E0702E00D101240848016821F094
:1026E000070121430160006800F00700A04201D00B
:1026F0000120F8BD0020F8BD00100240002002407B
:102700007047FEF709BF30B5ABB044216846FDF70E
:10271000A8FD142126A8FDF7A4FD542111A8FDF75A
:10272000A0FD1020009001200025CDE9060502241F
:10273000CDE90A4060210C90089128200D900720D7
:10274000CDE90E0468461094FFF702FA08B172B69C
:10275000FEE70F2026900320CDE9270529950421C7
:1027600026A82A95FFF7DCF808B172B6FEE711A893
:102770001A951194FEF78EFF08B172B6FEE74FF47A
:102780000070FEF74BFF002801D072B6FEE72BB0B9
:1027900030BD00000248016841F4700101607047DB
:1027A00088ED00E0704790F82410C90706D0016852
:1027B0004A68836A22F400321A434A6090F824106F
:1027C000890706D501684A68C36A22F480321A4331
:1027D0004A6090F82410490706D501684A68036BDF
:1027E00022F480221A434A6090F82410090706D583
:1027F00001684A68436B22F400421A434A6090F829
:102800002410C90606D501688A68836B22F48052B9
:102810001A438A6090F82410890606D501688A68F0
:10282000C36B22F400521A438A6090F824104906C0
:1028300011D501684A68036C22F480121A434A6079
:10284000016CB1F5801F06D101684A68436C22F41F
:10285000C0021A434A6090F82410090606D50168A0
:102860004A68806C22F4002202434A607047F8B53F
:1028700000260446C0F88060FEF748FE0546206842
:1028800000686FF07E47000708D52B4600224FF402
:1028900000112046009700F007F960B92068006831
:1028A00040070AD52B4600224FF4800120460097AE
:1028B00000F0FAF808B10320F8BD2020A067E06717
:1028C000266684F874600020F8BD00002DE9F04110
:1028D0000446016880682269E66910436269002540
:1028E00032431043694B0A68694E324002430A6022
:1028F00020684168E26821F4405111434160216839
:10290000A069994201D0226A10438A6822F4306299
:1029100002438A605F4927685F488F420DD1D0F833
:10292000880010F0030006D0012838D0022834D0E7
:10293000032821D135E001211FE058498F420BD1F6
:10294000D0F8880010F00C0025D0042827D00828E3
:1029500023D00C2810D124E09F420DD1D0F888005C
:1029600010F4406017D0B0F5806F18D0B0F5006F4C
:1029700013D0B0F5406F14D01021494A00264FF40F
:1029800000409F422FD171B102290FD004290FD0EE
:10299000082973D10FE00021EFE70221EDE70421C0
:1029A000EBE70821E9E7FFF75DF803E0104602E0F6
:1029B000FFF77CF8F0B3626802EB420181425DD818
:1029C000B0EB023F5AD8010E0302500818187141AB
:1029D0000023FDF7F9FB334AA0F5407191424DD831
:1029E0002168C8604BE0E3694FF6EF77834228D156
:1029F000092943D2DFE801F005080B420D424242AB
:102A00001000FFF72FF806E0FFF73EF803E010464E
:102A100002E0FFF74BF868B14100606801EB50013C
:102A2000B1FBF0F0A0F11001B94227D84FF6F071D8
:102A3000014000E023E0C0F3420001432068C16090
:102A40001DE009291AD2DFE801F005080B190D195C
:102A500019191000FFF706F806E0FFF715F803E074
:102A6000104602E0FFF722F848B1616800EB510020
:102A7000B0FBF1F0A0F11001B94205D9012566665D
:102A80002846A666BDE8F08180B2A9E70080004034
:102A9000F369FFEF0038014000100240004400409D
:102AA0000024F400FFFC0F002DE9F0479A4617467A
:102AB0000E4604464FF000094FF02008089D4AE0FA
:102AC000681C48D0FEF722FDA0EB0A00A8422AD8D5
:102AD0004DB32068016849073DD5C069C043000572
:102AE00039D421684FF400600862206850E8001F64
:102AF00021F4D07140E80012002AF6D12068083095
:102B000050E8001F21F0010140E80012002AF5D131
:102B1000C4F87880C4F87C80C4F8808084F874900D
:102B20000320BDE8F087216851E8000F20F4D07041
:102B300041E80002002AF6D12068083050E8001F62
:102B400021F0010140E80012002AF5D1C4F8788094
:102B5000C4F87C80E2E72068C06936EA000004D04F
:102B60000020B842ACD00020DBE70120F9E7FEE707
:102B70000FB4054B10B503A9044A029800F0D8FB26
:102B800010BC5DF814FB0000C1520008DC0A0020F4
:102B90000907090E002804DB00F1E02080F800148A
:102BA000704700F00F0000F1E02080F8141D70471E
:102BB00030B528B1144C031F002021680A4605E0F7
:102BC000084630BD9A4203D810465268002AF9D10F
:102BD000002800D041680BD00468A3EB0005A54293
:102BE00004D11B681C440346046002E0436000E01B
:102BF00023603AB11C68D51AA54203D115682C444C
:102C00001C6052685A6030BDE00A00202DE9F04790
:102C100082460F4C10480D4E0E4F001B4FF000081F
:102C200020F007054FF0010900221146504602F03E
:102C30008BFB002802D1306810B10020BDE8F0877E
:102C40003C60C4E90058C6F80090EDE7E40A0020B3
:102C500034280020E00A00203030002002E008C8BC
:102C6000121F08C1002AFAD170477047002001E006
:102C700001C1121F002AFBD1704710B541690446FB
:102C800088472069A04200D1002010BD0120704774
:102C90002DE9F04F002799B0894604463E46B846D4
:102CA00046E0A068C6EBC602416801EB82010E91C6
:102CB000806810A900EBC60A28480D91AA68406AEE
:102CC000120A62F31F2001901C2105A8D5F80CB050
:102CD000FDF7C7FAA869006800F010FF0590A86921
:102CE000806806905FEA0A0008D0C0F80080296872
:102CF000416029B1498819B1012102E0404603E051
:102D00000021016001B900200790A86901991C22E7
:102D10004068CDE90A1B099005A90D98FDF788FACE
:102D20001C2210A90E98FDF783FA7F1CBFB2761CF7
:102D30000CB1208800E00020B04205D9606818B1CD
:102D400050F82650002DACD11FB1A0684168C9F8D9
:102D5000001019B0384600F003B80000F05E00081B
:102D600030BCBDE8C08F70472DE9FF5F82B0002105
:102D7000DDE90430020DDDF840B0034318D044F61D
:102D80001050A2F2FF3242431514119801281FD0AF
:102D9000A5EB0B00401C5FEA000A4FF000064E4F07
:102DA000DFF83891B046504615D5CAF1000413E05B
:102DB000119801244AA3012801D16FEA0B0102985E
:102DC000119AC0E90031C0E9024206B000F08EB8A5
:102DD000CBF10000DFE704460021404A491842EBEE
:102DE0000450CDE9001012E0E00707D032463B4620
:102DF00040464946FDF7A3FE8046894632463B469B
:102E000010461946FDF79BFE06460F466410002C3F
:102E1000EAD1DDE90401DDE90023BAF1000F06DAA9
:102E2000FDF78DFE42464B46FDF789FE05E0FDF7B6
:102E30004DFD42464B46FDF749FD04460E46002235
:102E4000284BFDF715FF03D84FF0FF30014607E090
:102E50000022254B20463146FDF789FCFDF7F0FEA8
:102E6000102409E0002C0ADB0A220023FDF7ACF94C
:102E7000039B30321A55641E50EA0102F2D1641CE1
:102E8000039AC4F111031444119A012A03D00122B8
:102E900008430DD10AE0084304D000204FF0110B85
:102EA000119072E7A3EB0B056D1E0DE05B4504DD91
:102EB0004FF0000205F1010504E003DA4FF00002D3
:102EC000A5F10105002AECD002981199C0E9023160
:102ED000C0E9004579E70000000014400000F03F21
:102EE000300000000000F0430000E03F30BCBDE8CF
:102EF000C09F30380A2801D2012070470020704757
:102F000070B505460C4648886988884202D9AAB13E
:102F1000002070BD92B100260CE000BF6168C6EBD6
:102F2000C6006A6801EB800102EB80001C22FDF7FD
:102F30007FF9761C6088B042F0D801E06068686074
:102F40006088688020882880012070BD30B500B37B
:102F5000F9B1F2B15268E2B10F4C1368A34203D049
:102F60000260012913D014E00023121D07E000BF06
:102F700052F82350A54204D040F823505B1C8B42EA
:102F8000F6D38B4205D152F82300A04201D1012093
:102F900030BD002030BD0000DECAFAA170B50D467C
:102FA000060014461AD0CCB1104600F04DFE00B118
:102FB0006088A84212D10023042109E0C3EBC302B8
:102FC000606801EB8202805820B146F823005B1C48
:102FD000AB42F3D3AB4201D1012070BD002070BDE4
:102FE0000349884201D1012070470020704700004A
:102FF000DECAFAA12DE9FE4F92468946040003D0AD
:10300000A08D20B1256B03E0002000F0FBB8002567
:103010000020E082A082207BC043800702D03022C3
:103020001121DCE0B9F1000F61D0D5B32888C0B31D
:10303000D9F818000026D0F8008056E0A86800688B
:1030400000EB0610019052D058B3C6EBC6000290B8
:1030500009EB80000121009000F000FEDBF8183041
:10306000596888421AD80098DBF80C208069D76824
:10307000D0F80CC0674511D19768D0F808C06745F3
:103080000CD152684068824208D1186800F027FDD0
:103090000746584602F044F9874203D2182212210B
:1030A0009DE024E0DBF81800006800F027FD02999D
:1030B00020F07E4259F8210020F07E40824201D06B
:1030C0001922ECE70098406888B100988069006890
:1030D00078B14146404500D208468046DDE90010FF
:1030E0005A4600F092F8761C2DB1288804E0172289
:1030F000D5E72122D3E70020B04206D9686820B185
:1031000050F826B0BBF1000F98D1BAF1000F74D07F
:10311000A08D012806D9256B0C3503D0288808B16D
:10312000002658E0182259E0A868006800EB061B4A
:103130003BD0BBF1000F38D0C6EBC60001900AEBC4
:1031400080000121009000F089FDD9F818305968FD
:103150008842E7D80098D9F80C208069D768D0F861
:103160000CC06745DED19768D0F808C06745D9D153
:10317000526840688242D5D1186800F0B0FC07461A
:10318000484602F0CDF88742CCD3D9F81800006841
:1031900000F0B4FC20F07E4201985AF8200020F0A4
:1031A0007E40824203D0192218E0172216E00098D0
:1031B00040680028F9D000988069006868B14146ED
:1031C000404500D2084680464A465846009900F0DD
:1031D0001CF8761C3DB1288806E0212213212046E8
:1031E00001F0D2FB10E70020B04206D9686820B198
:1031F00050F82690B9F1000F96D1A4F814804FF042
:10320000010002E71EBCBDE8E08F70B504460E4623
:103210001546104602F084F80146A060B0690068C7
:103220004843E06071686160726810442060A8697A
:103230000268920007D4D0E90223D21A11448160B7
:10324000A9696068C86070BD70B50546002621E0B8
:10325000A9688369096801EB06141968890005D516
:10326000D4E901129868FCF7E3FF08E0D3E9021201
:10327000891A62681144996080696168C160D4E903
:103280000101084460602168884201D3E068081A9F
:10329000761C60600DB1288800E00020B04206D99D
:1032A0006868002803D050F826000028D0D170BDEF
:1032B0002DE9F041054600262BE0A968096801EBDD
:1032C000061481690A6892000FD5A268896860684F
:1032D000FCF7AEFFD4E9011001446160206881422F
:1032E00001D3E168411A616012E0D4E9011211448E
:1032F00061602268914201D3E168511A616082697C
:10330000D2E90237DB1B1944916080696168C160B2
:10331000761C0DB1288800E00020B04206D968680C
:10332000002803D050F826000028C6D1BDE8F0815F
:103330002DE9FF4F95B09A46884606460025EEE1F6
:10334000252877D100242746F94A0121039400E07B
:10335000044316F8013F203B01FA03F01042F7D175
:1033600030782A2811D06FF02F033078A0F1300286
:10337000092A16D8039A44F0020402EB820203EBF6
:1033800042021044761C0390EFE758F8042B039296
:10339000002A03DA504244F40054039044F002043B
:1033A000761C30782E2816D116F8010F44F004044C
:1033B0002A280DD06FF02F023078A0F13003092BAE
:1033C00009D807EB870302EB4303C718761CF3E722
:1033D00058F8047B761C30786C280FD006DC4C281B
:1033E00017D068280DD06A2814D104E0742810D0B2
:1033F0007A280FD10DE044F400140AE044F480145C
:1034000001E044F440147278824202D104F5801441
:10341000761C761C307866280BD013DC582877D0C1
:1034200009DC002875D04528F6D04628F4D0472876
:103430001AD193E118E0632835D0642879D0652843
:1034400012D18BE1702873D008DC6728F1D069288D
:103450006FD06E280DD06F2806D1ACE073282CD029
:10346000752874D0782853D05246179990476D1C10
:1034700054E1C4F30250022809D003280DD0D8F833
:10348000001004280DD00D6008F1040846E1D8F8BA
:103490000010EA17C1E90052F6E7D8F800100D80D5
:1034A000F2E70D70F0E718F8041B8DF8001000200B
:1034B0008DF80100EB46012003E058F804BB4FF003
:1034C000FF3061074FF0000102D40DE009F1010166
:1034D0008946B9420FDA8145F8DB1BF8091000294B
:1034E000F4D108E009F1010189468142FADB1BF8B9
:1034F00009100029F6D103985346A0EB090721468D
:103500003846179A00F083FA284400EB090507E0D3
:1035100044E008E10DE01BF8010B52461799904773
:10352000B9F10109F7D2534621463846179AF2E01D
:1035300039E00A21C4F302524FF0000B0091022A35
:1035400006D058F8040BC117032A09D00AE023E07B
:1035500008F1070020F00702F2E80201904605E0BA
:1035600000B2C117042A01D140B2C117002906DAFE
:103570000A460021404261EB02012D2202E02205B1
:1035800004D52B228DF80420012203E0E20701D0AC
:103590002022F7E7914657E00A2100E010214FF082
:1035A000000B00910BE010214FF0000B44F00404DD
:1035B0000827009103E008204FF0000B0090C4F3AF
:1035C0000252022A05D058F8040B0021032A08D021
:1035D00008E008F1070020F00702F2E80201904637
:1035E00003E080B2042A00D1C0B24FF000092207E4
:1035F0002AD53278702A07D0DDF800C08CF0100C84
:103600005CEA0B0C05D00EE040228DF8042001226C
:1036100008E050EA010306D030238DF804308DF81D
:10362000052002229146009B83F0080353EA0B0316
:103630000AD150EA010201D1620705D530228DF886
:1036400004204FF001097F1E3278582A04D039A295
:103650000C920CAA02920BE03BA2F9E75B46009A9F
:10366000FCF7B2FD0C9B9B5C029A521E02921370F7
:1036700050EA0102F2D1029804A9081A00F1200BC5
:10368000600702D524F4803400E001275F4502DDA5
:10369000A7EB0B0000E0002000EB0B01009003986B
:1036A0004944401A0390E00306D453462146179A32
:1036B000039800F0ACF90544002706E001A8524643
:1036C000C05D179990476D1C7F1C4F45F6DBE003EA
:1036D0000CD553462146179A039800F098F90544F3
:1036E00004E030205246179990476D1C0099481EFF
:1036F00000900029F5DC08E0029802995246007813
:10370000491C0291179990476D1CBBF10001ABF168
:10371000010BF1DC5BE100F068F90544761C3078C0
:1037200000287FF40DAE19B0284600F05BB9000008
:103730000928010030313233343536373839616287
:10374000636465660000000030313233343536374B
:10375000383941424344454600000000600700D428
:10376000062708F1070020F00700F0E80223804652
:1037700003F0004C5FEA0C0001D097A009E020059F
:1037800001D596A005E0E00701D095A001E0AFF2D9
:103790004C001390307823F0004365280CD006DCF1
:1037A000452809D046281DD047287FD13BE0662810
:1037B00018D067287AD136E00021112F01DB1120C3
:1037C00000E0781CCDE9000104A90CA8FFF7CCFAB1
:1037D000DDE90D010C9A4FF0000B07F10109109281
:1037E00000914EE04FF000400097CDE9011004A990
:1037F0000CA8FFF7B9FADDE90D020C9B0F994FF009
:10380000000B91461093009211B9791C00EB01094D
:10381000B7EB090003D4C0F1FF3B07F10109A9EBA5
:103820000700019042E0012F00DA01270021112F4B
:1038300001DD112000E03846CDE9000104A90CA803
:10384000FFF792FADDE90D010C9A00914FF0000BA1
:10385000B946109221070FD4009A4A4503DA9146DF
:1038600001E0A9F10109B9F1010F05DD109AA9F1F3
:103870000101515C3029F4D0B84202DA10F1040F92
:1038800003DA0121CDE9011010E0002803DC8344B4
:10389000A9EB000102E0411C494500DD8946A0EB8F
:1038A0000B00401C01904FF000400290200705D40F
:1038B0000198484502DB4FF0FF30019000208DF861
:1038C0004B0002980DF14B07B0F1004F25D00220BC
:1038D0000C902B200D90029800280CDA40420290A8
:1038E0002D200D9007E00A210298FDF76BF830318A
:1038F000029007F8011D0C99481E0C900029F2DC7B
:1039000002980028EFD1791E0D980870307800F0E9
:10391000200040F0450007F8020D11A8C01BC01D93
:1039200002901398007800B1012000EB0901019882
:1039300001EBE071029801440398401A401E039085
:10394000E00306D453462146179A039800F05FF827
:1039500005441398007818B15246179990476D1C8A
:10396000E00323D553462146179A039800F04FF8F9
:1039700005441BE0BBF1000F07DB0098584504DD50
:103980001098179910F80B0001E017993020524653
:10399000904701980BF1010B401E05F101050190C4
:1039A00004D12E205246179990476D1CB9F10001A1
:1039B000A9F10109DEDC05E017F8010B5246179961
:1039C00090476D1C0299481E02900029F4DC534672
:1039D0002146179A03989EE62D0000002B00000058
:1039E0002000000030BCBDE8C08F2DE9F041044646
:1039F00000251E461746880404D405E039462020D9
:103A0000B0476D1C641EF9D52846BDE8F0812DE94C
:103A1000F041044600251E469046C80301D53027D4
:103A200000E02027880404D505E041463846B04729
:103A30006D1C641EF9D52846BDE8F08138B50D48E7
:103A400000226946006800900B4800F035FD10F038
:103A5000FF0F02D04FF0FF3038BD074C0021206827
:103A600000F09AFD60600021206800F09FFDA060DA
:103A7000002038BDA45E0008B40A002010B5094C2F
:103A80000B4661684860A2685360206800F098FDAA
:103A9000012804D0206800F065FD000A10BD002058
:103AA00010BD0000B40A002079B1C0F3C612514322
:103AB000C91DC0F3415321F00701D940C0F3434071
:103AC000042804D0082807D104E00020704701EB47
:103AD000021101E001EB0221C91DC808704759B16C
:103AE000C0F3C6125143C91D21F00701C0F3415074
:103AF000C140C91DC80870470020704770B54021FB
:103B0000C0F34342022A1BD0394A20F07E439C1A5C
:103B10000D014E0193425FD029DC364AA3EB02042B
:103B2000934259D019DC402B57D0403BB3F580234A
:103B30004CD0802B37D0AB424FD12E49C91F4CE01F
:103B4000C0F3C051C905C0F3C61241EAC21100F06A
:103B50007F02114341F480213FE0A4F54074F93C19
:103B60001FD00F2C35D0B44237D1234935E0234B39
:103B7000E21A9C421BD00BDC214AA2181DD0802ADD
:103B800019D0AA4211D0A2F58062073A25D117E0D8
:103B90000F2A18D0B2420CD01A4BDA421DD11A4962
:103BA0001BE01A4919E01A4917E01A4915E01A49A9
:103BB00013E01A4911E01A490FE0194980390CE065
:103BC0001449C91D09E014490F3106E01049803934
:103BD00003E00E490F3100E0114600F080420A4335
:103BE00000F00051114300F00060084370BD000078
:103BF00040040600470404004010040000047E0056
:103C0000000482FF00F801FF401082014008040018
:103C1000C000040040048400400884004010840078
:103C2000C000840070B514460D46064600F00CF83E
:103C300040B17068C5EBC50110EB810002D0446053
:103C4000012070BD002070BD28B1416819B14088C5
:103C500008B10120704700207047000010B5020035
:103C60002AD0164B1068B3EBC01F03D0144BB3EB34
:103C7000C01F01D1012000E0002008429069406887
:103C800002D01F3020F01F005369D9B2012900D0A3
:103C900000211C0A07E0012907D0936953F821305D
:103CA0005843491C1AB1234602E00123F8E70023D8
:103CB0008B42F0DC002800DC002010BD00600042D8
:103CC0000060000208B509A10968009148B10178B7
:103CD0009DF80020914204D104226946FCF7CCFAF9
:103CE00008B1002008BD012008BD00000384048441
:103CF0002DE9FF4F83B0DDE91141B1FBF4FADDE9B5
:103D00001370DDE91895DDE91668791B61430291AE
:103D1000DDF840E0DDF854C0411B0191ACEB080137
:103D2000414306FB0090009103EB8001049B9E45FC
:103D300002D19FED361A01E0B7EE001A7E436643CA
:103D400002EB86024FF0000902EB840B58E00027DB
:103D500053E000BF0EEB8900002690ED000A1046EC
:103D600020EE010A3CE0002325F0030C22E000BF16
:103D7000D1ED002A90ED003A00EB840091ED012A8C
:103D800002EE830AD0ED002A00EB8400D1ED021A86
:103D9000D1ED030A103102EE220A90ED002A00EB69
:103DA00084001B1D01EE820AD0ED001A00EB840096
:103DB00000EEA10A9C45DBDC09E000BFF1EC010A42
:103DC000D0ED001A00EB84005B1C00EEA10AAB42B0
:103DD000F4DB029B761C00EB8300019B01EB83016B
:103DE0004645C0DB00987F1C01EB8001049800EB86
:103DF000890009F1010980ED000A5745AAD3121D77
:103E00009345A4D807B000F003B8000000000000FC
:103E100030BCBDE8C08F00002DE9FF4F86B017AC65
:103E2000DDE91EC794E845009CFBF0F400FB14C4D8
:103E3000041B94FBF0F5DDE91C9100FB154E99FB8A
:103E4000F2F502FB1594141B94FBF2F502FB1545E9
:103E50000CEB0004641E94FBF0FC09EB0204641EEE
:103E600094FBF2F8A7EB0E04DDE9143B491B114467
:103E7000491E91FBF2F7DDF86CA00444641E94FB2C
:103E8000F0F4CDE9008CDDF858C0B3FBFAF102FB89
:103E90000CF200FB142258435A43401ACDE90402A5
:103EA000301B48431A9A039001FB06F0D21B504383
:103EB000DDE9008C029008FB06C0BBFBFAFB099A07
:103EC000484302EB8002079E1398B04202D1DFED17
:103ED0002A0A01E0F7EE000A169809EB050606FB30
:103EE00000E05843089B4FF0000803EB800E40466B
:103EF0003BE0002633E01398002500EB880090EDAE
:103F0000000A704620EE200A1CE0002311E000BFEA
:103F100000EB810C06E000BFB2EC011AF0EC011AD4
:103F200001EE210A6045F7D3DDF810C05B1C00EB01
:103F30008C00A342ECDB059B6D1C00EB8300039B14
:103F400002EB8302BD42E0DB0298761C02EB8002AA
:103F5000079800EB880008F1010880ED000A5E4533
:103F6000C9D30EEB810E09F1010081465045C0D343
:103F70000AB000F003B800000000000030BCBDE84B
:103F8000C08F00002DE9FF4F2DED020B82B0DDE95F
:103F90001709DDE914E8119A00FB08F0504303EB20
:103FA000800A0027DDF84CB0199CA8E06342002B82
:103FB00000DC0023ABEB0405454500D34546E01883
:103FC0000699504301EB800103FB02F0EB1AABEBC7
:103FD000030555430195A8EB0305554300950AEBEE
:103FE000800002FB03F5F0EE400A00267AE0002391
:103FF00025F00F0C63E000BF91ED004AD0ED004AC0
:1040000091ED013A90ED011A44EE840AD1ED023AA5
:10401000D0ED022A91ED032AD0ED031A91ED044A66
:1040200041EE030AD0ED044A90ED063A90ED071AEE
:1040300042EEA30AD1ED053AD1ED062A41EE820AFD
:1040400090ED052AD1ED071A44EE840AD1ED084A15
:1040500090ED084A42EE230AD0ED093A91ED0A2A82
:1040600043EE220A91ED093AD0ED0A2A41EE210AE7
:1040700091ED0B1AD0ED0B1A44EE240A91ED0C4A87
:10408000D0ED0C4A43EE830A91ED0D3AD0ED0D3A96
:1040900042EE820AD0ED0E2A91ED0F2A41EE810AFE
:1040A00091ED0E1AD0ED0F1A40304031103344EE2E
:1040B000840A43EE830A42EE810A41EE820A9C455D
:1040C0009ADC06E0B0EC011A5B1CF1EC011A41EE3F
:1040D000210AAB42F6DB019B761C01EB8301009BBE
:1040E00000EB83004E4582DB05987F1CC0ED000A83
:1040F0001299059800EB810005901A9804447745C1
:10410000FFF454AF08B000F000B830BCBDE8C08F79
:104110002DE9FF4F89462DED028B8FB0DDE92C0391
:104120005843DDE92824DDE926B3DDE92075DDE922
:104130001EA6D21A0D92BBF1010F01D1012805D0A4
:10414000B34501D101287CD000200BE12A98CDF89D
:1041500038A01844684313997043DDF850B001EB60
:1041600080000C90CDF82890ABF100609FED808A24
:10417000DDE92312514301FB06F8B0F1807F31D213
:10418000002027E0BAF1000F04D00E98B0EC010A2D
:104190000E9001E0B0EE480A25980D9A2799CDE9D6
:1041A0000840CDE9061222AB0DF10C0C93E8070094
:1041B00000968CE80700CDE901755B460C9A0A99D8
:1041C0001198FFF7DFFE0A980BEB880B001D0A9091
:1041D00009F101008146B842D4D30FB0BDEC028B87
:1041E00000F0C8B84FEA8800FEF710FD0B900020E1
:1041F00037E000200AE000BF0BEB800191ED000AE0
:104200000B9901EB8001401C81ED000A8045F3D839
:10421000BAF1000F04D00E98B0EC010A0E9001E044
:10422000B0EE480A2599279806AB0D9A099183E8C4
:10423000150022AB93E8070003AB009683E8070064
:1042400000E01AE0CDE90175DDE90A130C9A119836
:10425000FFF798FE0A980BEB880B001D0A9009F1F6
:1042600001008146B842C4D30B980FB0BDEC028B5D
:1042700004B000F082B8FEF79BBC002032E0604240
:10428000002800DC00202B992B1B8B4200D30B460F
:104290002A99221801FB0521139A714302EB81022E
:1042A000BAF1000101D08C4600E0CC46DDF89C80DC
:1042B0001B1A0D99CDF818800993CDE90710DDE997
:1042C0002301CDE90401CDE90275CDE900C64946D7
:1042D000149B1198FFF70CFD259809EB87090444FE
:1042E0000BF10100834622988345C8D375E76042ED
:1042F000002800DC00202B992A1B8A4200D30A46A2
:104300002A99231801FB0531139B714303EB810E9E
:10431000BAF1000101D00B4600E04B460D99CDE902
:104320000A10DDF89CC0121ACDF824C00C92DDE909
:104330002321CDE90621DDF8B4C02C98CDF814C0B6
:10434000CDF820B0CDE903508DE8C800724649464B
:10435000149B1198FFF760FD259809EB8709044429
:1043600008F10100229980468842C0D335E7000059
:10437000000000001FBCBDE8E08F30BCBDE8C04FAE
:10438000FFF779BFF0B5042BDDE9055400EB840499
:1043900027D0082B27D12FE000236E0812E00F78DA
:1043A0003F0902EB870797ED000A80ED000A11F83C
:1043B000017B07F00F0702EB870797ED000A80EDFE
:1043C000010A08301F465B1CB742E8D3EB0708D050
:1043D00011F8013B1B0902EB830393ED000AA0ECEB
:1043E000010AA042D8D3F0BD11F8013B02EB8303D0
:1043F00093ED000AA0EC010AA042F5D3F0BD70B520
:10440000C66B416B04460025AEB1E9B1A163012042
:10441000226CB0470220226CA16BB047A06BFEF764
:104420002CFCA06301460320226CB047A06B6D1CDE
:104430000028EFD108E039B1A163A06BFEF71DFCA5
:104440006D1CA0630028F8D1284670BD03460020EB
:10445000596B002908D0CB600A69401C8A4203D0FE
:10446000002A01D01146F6E770472DE9F041446B70
:10447000002594B1012600272079C00707D0216AC2
:10448000204611B18847304600E03846054420698F
:10449000A04202D008B10446EEE72846BDE8F0810C
:1044A0001CB500230522CDE900230123014A00F0B9
:1044B000FFF81CBD580600202DE9F0430F468FB0D1
:1044C000164605460021FFF7EBFF804610F0FF0F70
:1044D0000BD1684600F032F820B1A7B100240DF1ED
:1044E0000C090CE0286800F03DF80FB0BDE8F0833F
:1044F00057F8242021464846FFF794FB641CBDF87A
:104500000E00A042F4DC76B100246F4607E000BF45
:1045100056F824202146381DFFF784FB641CBDF8A3
:104520000600A042F4DC6946286800F01DF818B9BE
:10453000286800F017F880464046D6E71FB50028E7
:104540000CD00749D1E90023CDE90023D1E90221AC
:10455000CDE902216A4602A900F034F804B010BD8A
:10456000305E000800F02CB92DE9F0410D460646FA
:1045700000F034F9041E0DD0294600F0DDFF074697
:104580002946204600F0A8FF00EA0704304600F064
:10459000AEF92040BDE8F08110B90248024A02603D
:1045A00000F05EB8580600200001C0A110B9024812
:1045B000024A026000F0EEB9580600200001C0A1D6
:1045C00000F0B8B910B570B169B162B1074C0460C0
:1045D000D1E90041C0E90141D2E90012C0E903126A
:1045E0000123184610BD002010BD0000DECAFAA14C
:1045F00010B518B1044A0168914200D00020044669
:10460000FCF7BEFD204610BD0001C0A130B44AB188
:1046100040B139B1074C1368A34206D130BC0C320B
:10462000FEF7BCBC30BC0020704730BC1C32FEF72B
:104630008DBC0000DECAFAA130B44AB140B139B134
:10464000064C1368A34206D130BC121DFEF7A6BC6F
:1046500030BC0020704730BCFEF778BCDECAFAA13F
:1046600038B50D46FFF7C4FF04000DD00DB1002092
:104670002880A08D00B1206B6946FEF709FB30B1A0
:1046800005B12880009838BD1022114602E018229A
:104690001121204600F078F9002038BD034810B5FC
:1046A0004469FCF76DFD204610BD0000F05E000877
:1046B0002DE9F04F89B00646DDE912104FF0000AEF
:1046C000554663F30705CDE9011361F30F259046C5
:1046D000544660F317458346FEF7D8FA304F010081
:1046E0001CD0304800680123C0F30220042806D003
:1046F0002D48182202600268182A13D00BE02B48BC
:104700001422836083680BB1521EFBD1826812B9F8
:104710000068401C0AD00846FEF725FBF86909B07E
:1047200000F04AB803600268002AFCD10846FEF790
:104730001AFBFCF725FDE6B11D49C8F80010C6F8C4
:10474000008000F026FAB0B1FFF7A8FF8146C5F35C
:104750000721E8B2002200F04CF90546C9F3072111
:1047600009F0FF00002200F044F9854205D07C6882
:104770000BE0386AD3E73C6807E00EA000680090C1
:104780006846FFF79FFA10B9BC68C6F800A0DDE9DB
:1047900001105A4600F02DF9C8F844002046BEE743
:1047A000F05E0008002004E0084C0258003002408F
:1047B0000001C0A10384048430BCBDE8C08F0000A8
:1047C00010B5FFF715FF20B1BDE81040103000F024
:1047D000DAB90148806910BDF05E00082DE9F04F9C
:1047E00091B00C46FFF704FF050013D0B4B13BA114
:1047F0002068FEF7F5FB06004FF0000B11D0206893
:104800000190D4E90301CDE90401D4E90101CDE926
:10481000020143E0002011B000F066B8112210211F
:1048200058E001212046D4F804A0FFF717FA80468B
:1048300004F11C00D4F8209001211090FFF70EFA2B
:1048400007461422274906A8FBF7F2FC0120B8F11D
:10485000000F02D0ADF81E0002E0ADF81EB000243B
:1048600008941FB1ADF82600109802E0ADF826B00C
:1048700000200A90B9F1000F02D10FB1132206E017
:10488000BAF1000F05D1B8F1000F02D012221021A9
:104890001FE0142206A901A8FBF7CAFC86F001025A
:1048A000144602A905F11C00FEF72AFB68B1224656
:1048B00004A905F12400FEF723FB40B10320E860C2
:1048C0002846FFF7C3FD2846A5E7122200E0132281
:1048D0001621284600F058F89CE70000696E6974BC
:1048E00000000000485F000830BCBDE8C08F70B514
:1048F000FFF77EFE041E08D0207B800706D410221E
:104900001121204600F040F8002070BD2046FFF73E
:10491000ACFDE06B60B1656B55B1D4E90F3229464F
:10492000002098472869A84202D008B10546F4E75C
:10493000012070BD70B515460E46FFF759FE0446BE
:104940002A463146FEF756FB00281CD0A08D08B140
:10495000256B00E00025012802D9266B0C360DE0FE
:1049600000260BE02846FEF76FFC2046FFF747FDC8
:104970003046FEF79DFCE08A401CE082E08AA18A76
:104980008842EFD380B270BD002802D0103000F012
:104990001BB9704738B50D46FFF72AFE040008D052
:1049A0000DB100202880A08D012805D9206B0C3086
:1049B00003E0102211460BE000206946FEF768F97B
:1049C00018B105B12880009838BD18221121204661
:1049D000FFF7DAFF002038BD02460068010A012017
:1049E00004E05368491E53F8213058430029F8D198
:1049F0007047000640EA014040EA0220704700008C
:104A00002DE9FF4F2DED020B86B0D0F804B0DDE9A3
:104A1000154609995568D1F804C071680291B0F83B
:104A200000E0B0F8029009980021008800900998F1
:104A3000B2F800804788508832887688CDF814C054
:104A40003BB1CC46CDF804C0012804D04FF0010C96
:104A500003E0F446F6E74FF0000CCDF810C0B8F1D3
:104A6000010F19D0012800D0002000B20390BBB183
:104A70004846DFED421A904209D19CB10098B042FD
:104A800005D18BB170468CB1BC4660451BD06FF030
:104A900002007243029B11E00128E5D07042E4E776
:104AA0007046E6E73846EAE74846ECE7DDF800C03E
:104AB000EBE700BF491CE3EC011A89B28A42F9DC3A
:104AC0000CB000F05DB8029800EB810A44B1009888
:104AD000099A5668B0EE611ADC461BB1724615E0C1
:104AE0003846F5E74A4611E09CED002AD6ED002A4B
:104AF00002EE221AA3B3C8460CEB880C8CB34FF01D
:104B0000010800BF521E06EB880692B2002AEBD1C4
:104B100020EE011A95ED002A401E80B200EE821AA6
:104B2000AAEC011A049A05EB820504B3009A121A42
:104B30007A43059E002806EB8206CBD1CCB10098C3
:104B4000084481B2BBB1012203980BEB820B05EB49
:104B500080050198401E0004000C0190B3D1AFE71E
:104B600000E002E04FF00108C6E7B846CAE73A1A8B
:104B7000DFE73846E4E74A46E6E7000000000000C9
:104B800030BCBDE8C08F0022016802700260084698
:104B900070470120704720B1806910B103C8FEF74B
:104BA00083BF0120704710B1806900B1014609B18F
:104BB000886870470020704720B1816911B1406951
:104BC0008068704700207047037813F0FF0F01D012
:104BD000002070470170016862F31F21016001200D
:104BE0007047000008B54FF6FF730122694603487D
:104BF000FDF7E2FA9DF8000008BD0000AC27002098
:104C00002DE9F04781690A880AB1486800E0002070
:104C1000406830B10AB1486800E00020406804688C
:104C200000E00024012A02D948680C3000E000208E
:104C3000406838B1012A02D948680C3000E00020F1
:104C400040680068022A804602D94868183000E0AF
:104C50000020406840B1022A02D94868183000E0BC
:104C600000204068056800E00025022A0BD948684A
:104C700010F1180F07D030F8181F012903D9406828
:104C800008B1466800E0002604F10800FFF7A4FE22
:104C90000246E0684368A0698768D8F8180084680D
:104CA000A8692EB3D0F80890B069866800201BE090
:104CB0000146C51815E000BFA1EB000C06EB8C08FF
:104CC00009EB8C0C98ED000A07EB81089CED001AAB
:104CD000D8ED000A04EB810C491C00EE810A8CED32
:104CE000000A8D42E8D828469042E1D3BDE8F0871B
:104CF0008568002016E00146C61810E007EB810C1D
:104D00009CED000AA1EB000C05EB8C0CDCED000A1D
:104D100004EB810C491C20EE200A8CED000A8E4227
:104D2000ECD830469042E6D3E0E700002DE9F04FA2
:104D300004468069ADB0018809B1426800E00022F4
:104D4000526832B109B1426800E00022526813682B
:104D500000E00023012902D942680C3200E0002261
:104D6000526842B1012902D942680C3200E00022A7
:104D70005268166800E00026022902D942681832FB
:104D800000E0002252683AB1022902D94268183282
:104D900000E0002252681268022990460BD942684E
:104DA00012F1180F07D032F8185F012D03D952689D
:104DB00012B1526800E00022022902D94568183574
:104DC00000E000256D6845B1022902D9406818301D
:104DD00000E000204068806800E000200090D86873
:104DE00041681A91F1684D681395CD682695D1F800
:104DF0000890C168239180681E90208D80B2169023
:104E0000A08D80B22590E06B018889B207918088DF
:104E100080B22990208E80B22890A08E80B22790F8
:104E2000D8F80C00D0E901ABE0691D909869806862
:104E30002490D8F818008068069012B190698068B4
:104E400000E000202290B069216A87680098FFF78F
:104E5000AAFE054619900098FFF7AEFE2190009833
:104E6000FFF799FE2B90606A00B954482799ABF17F
:104E700001021C90491E02FB01B02899AAF101020F
:104E80002A90491E02FB01A01B90D8F81830002080
:104E90001968C1F3C61CC1F341522CFA02FCC1F3DC
:104EA0004341042901D008292DD1DA685AB3A169F8
:104EB0000C88032C04D9D1F8048008F1240801E0FF
:104EC0004FF00008D8F80480B8F1000F0BD0032C85
:104ED00002D94868243000E000204068006810B122
:104EE0008169896800E0002180690C461A99406850
:104EF000CDE90010996863462046FFF743FA211E6A
:104F000001D0084600E006981F900798C0F10008FD
:104F100000204CE029984142C8F10000002800DC44
:104F20000020864623982A9AA0EB0800904200D3DE
:104F30001046279A289B12B21BB21B9CCDE90E3259
:104F4000CDE90C84CDE90A011D9BCDE9083E1698F8
:104F5000CDE9049ACDE906B022981E9B139A1A99BE
:104F60008DE80F00394600201F9B249AFFF7D0F8E8
:104F7000002413E087603146DDF870C02B460846F8
:104F8000139AE047139807EB800721980544199876
:104F9000291A2B98814200DB199D641CB0694C458D
:104FA000E8D3C1688160259920988844401C2699DF
:104FB00020908842AED32DB000F002B8D95200083C
:104FC00030BCBDE8C08F2DE9F043064680698BB048
:104FD000018809B1426800E00022526832B109B18B
:104FE000426800E000225268176800E0002719B10B
:104FF00042680AB1128800E00022012902D9436800
:105000000C3300E000235B683BB1012902D94368FF
:105010000C3300E000235B681B6800252C46032A44
:1050200004D0022A1DD0012A3AD05EE009B14268BC
:1050300000E00022526832B109B1426800E000226B
:105040005268556800E0002509B1426800E000227E
:10505000526892B309B1406800E00020406884685B
:1050600043E009B1426800E00022526832B109B160
:10507000426800E000225268556800E000250229DD
:1050800002D94268183200E000225268AAB102290F
:1050900002D94068183000E000204068046824E02D
:1050A000022902D94268183200E0002252684AB14F
:1050B000022903D94268183201E015E00022526843
:1050C000156800E00025022902D94268183200E084
:1050D0000022526842B1022902D94068183000E02B
:1050E00000204068446800E000249A69E168B1F853
:1050F0000C90B1F80480D9689368888989888AB24D
:1051000081B202A800F0DBFAB8698368F868818888
:1051100080898AB281B204A800F0D1FAA8698368B4
:10512000E868818880898AB281B206A800F0C7FA4F
:10513000A0691FFA88F21FFA89F1836808A800F0B5
:10514000BEFA02A996F92500CDE9000196F92430AE
:105150001C3608AA96EC020A06A904A8FFF750FC20
:105160000BB0BDE8F08300002DE9F04F81698FB0EE
:105170000B880BB14A6800E0002252682AB10BB1DB
:105180004A6800E0002252681268012B02D94C687C
:105190000C3400E00024646844B1012B02D9496852
:1051A0000C3100E000214968096800E00021CC686A
:1051B000E3680293D368DD680E95A4680D94D3E983
:1051C0000149C3690693036A0593436A0C93836A92
:1051D0000B93036BD3E900030A939269C0F10008B3
:1051E0000020926809928969896803915CE000BF98
:1051F000C8F10000002800DC0020404404900E9814
:105200000599A0EB0800884200D3084600EB080A85
:105210000A98454200203FE06842002800DC002058
:10522000069AA9EB05012844914200D3114629446E
:10523000091A09FB04F26143CDE90712049901FB45
:1052400009000999604301EB800600200AE000BFD5
:1052500006EB800191ED000A039901EB8001401CEF
:1052600081ED000AA042F3D3049F0BE000200090E0
:1052700023463146079A039800F002FA08987F1CEB
:1052800006EB80065745F1DB039800EB84000390A2
:105290000C9805440BF101000D9983468842BBD35D
:1052A0000B9901988844401C014601900298814264
:1052B0009ED30FB000F000B830BCBDE8C08F000036
:1052C00013B54FF6FF73012269460248FCF7F4FF5D
:1052D00000981CBDAC270020704738B54FF0E02483
:1052E0002069FCF713F96569A1696D1C691A0091C1
:1052F0002169C1F3004181B1FCF708F9A169691A7C
:1053000000914FF47A725143B1FBF5F100EB40028A
:10531000C2EBC01001EBC00038BD0099F1E70000FE
:105320000146C0684A698969C068D2680968504303
:10533000044A1140A1F58022C03A01D1C01DC00825
:1053400070470000FFFF7F012DE9F0410B3020F096
:105350000706104D19E02068B04215D3B0420AD9B3
:10536000871B201DD4F80480FAF762FFA019C0E95A
:105370000078286004E060682860201DFAF758FF74
:10538000201D2660BDE8F081251D2C68002CE2D18F
:105390000020F7E7E00A00202DED068B82B0002008
:1053A0000090FCF7C1F8FDF7AEF9FDF72DF8FDF719
:1053B00013F8FDF7ADF8FDF75DF8FDF7C7F8DFF876
:1053C000E4A09FED39AB3AA0FDF7D2FB002440F2F8
:1053D000E249002640F2712161430AEBC108002531
:1053E00008EB860701A934A0FAF754FF07EB850004
:1053F0009DED010A6D1C2DB280ED000A012DF1DB3F
:10540000761C36B24E45EADB641C24B2012CE0DB8C
:105410000120FBF763FFFFF760FFFBF7C6FA41ECE3
:10542000190B26491F48FEF729FBFFF756FFFBF72C
:10543000BCFA41EC180B22A0FDF79AFB0120FBF708
:105440004DFF69461FA0FAF725FF0098C828BAD17A
:105450001A4853EC192B90EC020A51EC180BB4EEDD
:10546000E00AF1EE10FA0BDDFBF722FA53EC1A2BEF
:10547000FBF72CFA41EC100B13A053EC102B0AE0B5
:10548000FBF716FA53EC1A2BFBF720FA41EC100B42
:105490000FA053EC102BFDF76BFB1E20FBF71EFF3C
:1054A00091E70000840B00200000000080842E4162
:1054B000626567696E00000025660000AC0A002086
:1054C0006F6B000025640000302C252E366600002E
:1054D000312C252E3666000038B5044600200A46D9
:1054E000009001216846FFF791F8E0B10098114A59
:1054F00000F563719160D16010329160D16010321B
:1055000000F128019160D16002F110012032886021
:10551000C86000F525719160D16002F110018860CA
:10552000C860012038BD132230212046FFF72CFA35
:10553000002038BD3805002038B5044600200A4652
:10554000009001216846FFF777F800286DD03A49AE
:10555000086840F08040086000988860C86010319A
:105560000A6842F080420A60021D8A60CA6001F146
:105570001002116841F08041116000F10801916052
:10558000D1601032116841F08041116000F180015A
:105590009160D1601032116841F08041116000F1DA
:1055A00094019160D1601032116841F08041116026
:1055B00000F53B719160D1601032116841F080417B
:1055C000116000F540719160D1601032116841F0B6
:1055D0008041116000F5AB619160D16010321168BB
:1055E00041F08041116000F26C519160D160103245
:1055F000116841F08041116000F5B0619160D160A7
:105600001032116841F08041116000F294519160B4
:10561000D16002F1100100F29C500A68886042F0EB
:1056200080420A60C860012038BD12223021204625
:10563000FFF7AAF9002038BD9805002030B58B6926
:1056400084696FF0030000EB82019D68A26868180E
:105650001144DFED0A0A0CE090ED000AB5EEC00A35
:10566000F1EE10FA01D2B0EE600A81ED000A001FDF
:10567000091F9A688242EFD930BD00000000000087
:1056800070B501EB820417E0002211E000EB820507
:1056900001EB820695ED000AD6ED000AB4EEE00AB1
:1056A000F1EE10FA01DCB0EE600A85ED000A521C42
:1056B0009A42EBD301EB8301A142E5D370BD018097
:1056C000428043607047000004000000B8020020E0
:1056D00004000000FC02002004000000440300203D
:1056E000040000008C03002004000000D40300200C
:1056F00004000000180400200400000058040020EA
:10570000B1E0E640CF15E9BE99C108BEF83711BF38
:1057100051ED913FF84F783D44AB0BBFA0359EBE95
:105720005C628CBE30A586BE4C5ED8BE74F5F8BEF9
:10573000AF09D4BE300658BEF1D8BFBE35E8703FC1
:10574000863F84BC9C5418BF65EB95BE490E8EBD48
:10575000468B23BE375F94BEF1C32BBD3EFBC3BD5A
:105760007F1237BE893D85BE1F99E5BD4E5D533E14
:105770007A05FEBEA1EC933F429A63BE8E6940BF9C
:10578000C6F959BE42CB2A3EADF359BEEA1F7C3F53
:1057900047A80CBE52C2C03FC3E79D3F8BD43F3FDA
:1057A00010B0ADBFF7A1983FA09AAE3F3184AFBF14
:1057B00040E8E13F3041F4BFDBE1DA3F526C863F25
:1057C000BE74B7BFEDAE1640FFDFD83E42261B3E8B
:1057D00060F0DA3E43922B3EC5C0EC3D78190A409A
:1057E000826093BE4C087CBDFED9623FDF8DD63E01
:1057F000416A8C3F11CACBBDDBC5FA3D0C9D66BD2D
:10580000043E5E3E7E7FE93E0B9BF8BE3CCC5D3E97
:10581000E9D652C0C9EABF3EEACB03BF605282BE9E
:1058200024B20FBE9AD820BF621E47BE0215CCBF5D
:10583000C3EA2D3E9C1D7F3EEC60C4BF79295E3ECD
:105840000B81F43D54C8E2BEE4B01DC072690F3F45
:1058500032DB23C0C0F3D83FAFE9FDBF812F36C094
:10586000F17508BFB28322C0DA2E0840515D94BFA3
:10587000826426C0A8F6643F9742F9BF6E9EE53F5A
:105880004C949FBDBE310CBEA6AC01409F9B26BE72
:1058900034F13E3F34C1C3BDB7CBA7BFC1322C40AA
:1058A000F3A2FCBFFD29D3BE38FF5FBCB50EC8BC58
:1058B00075282340E6F12FBE242D4BBF815982BEAF
:1058C000CA24263DA9251D40C8B4043E7988FD3E62
:1058D000EF1774BF68527EBFF2EE02C0916B75BFC6
:1058E000FC2E3BBE533F223F079C893FC9AE92C06E
:1058F00005F47C3FFC69B5BF0D543B3EDF6436BF09
:10590000610D263F9E21F6BEF773B73E11ABBBBEBD
:105910002A01EC3D3C30733F3F6CA4BFD6A9813FC8
:10592000A54915BE86F7B8BF25B0CF3EAA4F4A3F5E
:1059300065E0CA3E134D993F147FA73F32631BC0F9
:10594000DC6D843F401787BF88258A3F714ACD3F71
:1059500043552D3DF94D06402446C4BF0ECD383F7A
:10596000221816C0BF23583F04860EC048DB903F64
:10597000ACCF8FBECDDB9FBE32F3BEC0FFA7A5BEAE
:10598000687EE13E034C3FBF9DA7B3BEA0458EC0DD
:105990002E4208BF24BD1EC03EFD0ABFC4E8B43D70
:1059A0009D5536401A6650BFBF1326C06AC05E3D83
:1059B0009A8D163E19D69540BBF307BEF4B0A7BF2B
:1059C0008A64AD3EFC71AA3EF7C3804080FB0A3F6B
:1059D000FA2E7BBFD27E113F2FE1293E98781D40E1
:1059E0004A9D133F9A6F97BE60AF433BC8482EBF96
:1059F000A924AE3F86A765BFA6347FBF3FB98640C6
:105A000052BE99BE13BADDBD56CACE3DE90802BFEB
:105A100009E42ABED04159BDDD421FBEF4D30BBEFE
:105A200072EAC0BE9928383E072EBA3EA445CBBEC6
:105A300077F0AF3DADBC023D8A9D423FDAC298BDD2
:105A4000BEADF03E97C886BF9DCE1ABD1A0D99BD5A
:105A5000A876003E5BE62C3DD13986BF47DFA8BF64
:105A60009A3489BE2FC882BF39A9B03E933608BF89
:105A7000D0FC10C098861D3D7FDF7FBF16EB0BBFAB
:105A800040D9313EEDE4B4BE54C8A5BF56AE3BBFCD
:105A9000812DFB3E0849F43EA2D903BFA0F0B13FDF
:105AA0002084C8BE6999AB3E354F51BE1B9B11BEC9
:105AB000A7DD0A3F0ADC703E5B1BA6BE876DACBE4D
:105AC00088B127BF4A7BF03E6E4C0FBFEC39D6BE83
:105AD000769E42BCB9E5843E3ADD323F1DE2FB3D95
